{
  "_format": "hh-sol-artifact-1",
  "contractName": "MyEpicNFT",
  "sourceName": "contracts/MyEpicNFT.sol",
  "abi": [
    {
      "inputs": [],
      "stateMutability": "nonpayable",
      "type": "constructor"
    },
    {
      "anonymous": false,
      "inputs": [
        {
          "indexed": true,
          "internalType": "address",
          "name": "owner",
          "type": "address"
        },
        {
          "indexed": true,
          "internalType": "address",
          "name": "approved",
          "type": "address"
        },
        {
          "indexed": true,
          "internalType": "uint256",
          "name": "tokenId",
          "type": "uint256"
        }
      ],
      "name": "Approval",
      "type": "event"
    },
    {
      "anonymous": false,
      "inputs": [
        {
          "indexed": true,
          "internalType": "address",
          "name": "owner",
          "type": "address"
        },
        {
          "indexed": true,
          "internalType": "address",
          "name": "operator",
          "type": "address"
        },
        {
          "indexed": false,
          "internalType": "bool",
          "name": "approved",
          "type": "bool"
        }
      ],
      "name": "ApprovalForAll",
      "type": "event"
    },
    {
      "anonymous": false,
      "inputs": [
        {
          "indexed": false,
          "internalType": "address",
          "name": "sender",
          "type": "address"
        },
        {
          "indexed": false,
          "internalType": "uint256",
          "name": "tokenId",
          "type": "uint256"
        }
      ],
      "name": "NewEpicNFTMinted",
      "type": "event"
    },
    {
      "anonymous": false,
      "inputs": [
        {
          "indexed": true,
          "internalType": "address",
          "name": "from",
          "type": "address"
        },
        {
          "indexed": true,
          "internalType": "address",
          "name": "to",
          "type": "address"
        },
        {
          "indexed": true,
          "internalType": "uint256",
          "name": "tokenId",
          "type": "uint256"
        }
      ],
      "name": "Transfer",
      "type": "event"
    },
    {
      "inputs": [
        {
          "internalType": "address",
          "name": "to",
          "type": "address"
        },
        {
          "internalType": "uint256",
          "name": "tokenId",
          "type": "uint256"
        }
      ],
      "name": "approve",
      "outputs": [],
      "stateMutability": "nonpayable",
      "type": "function"
    },
    {
      "inputs": [
        {
          "internalType": "address",
          "name": "owner",
          "type": "address"
        }
      ],
      "name": "balanceOf",
      "outputs": [
        {
          "internalType": "uint256",
          "name": "",
          "type": "uint256"
        }
      ],
      "stateMutability": "view",
      "type": "function"
    },
    {
      "inputs": [
        {
          "internalType": "uint256",
          "name": "tokenId",
          "type": "uint256"
        }
      ],
      "name": "getApproved",
      "outputs": [
        {
          "internalType": "address",
          "name": "",
          "type": "address"
        }
      ],
      "stateMutability": "view",
      "type": "function"
    },
    {
      "inputs": [],
      "name": "getTotalMinted",
      "outputs": [
        {
          "internalType": "uint256",
          "name": "",
          "type": "uint256"
        }
      ],
      "stateMutability": "view",
      "type": "function"
    },
    {
      "inputs": [],
      "name": "getTotalNFTisMintedSoFar",
      "outputs": [
        {
          "internalType": "uint256",
          "name": "",
          "type": "uint256"
        }
      ],
      "stateMutability": "view",
      "type": "function"
    },
    {
      "inputs": [
        {
          "internalType": "address",
          "name": "owner",
          "type": "address"
        },
        {
          "internalType": "address",
          "name": "operator",
          "type": "address"
        }
      ],
      "name": "isApprovedForAll",
      "outputs": [
        {
          "internalType": "bool",
          "name": "",
          "type": "bool"
        }
      ],
      "stateMutability": "view",
      "type": "function"
    },
    {
      "inputs": [],
      "name": "makeAnEpicNFT",
      "outputs": [],
      "stateMutability": "nonpayable",
      "type": "function"
    },
    {
      "inputs": [],
      "name": "name",
      "outputs": [
        {
          "internalType": "string",
          "name": "",
          "type": "string"
        }
      ],
      "stateMutability": "view",
      "type": "function"
    },
    {
      "inputs": [
        {
          "internalType": "uint256",
          "name": "tokenId",
          "type": "uint256"
        }
      ],
      "name": "ownerOf",
      "outputs": [
        {
          "internalType": "address",
          "name": "",
          "type": "address"
        }
      ],
      "stateMutability": "view",
      "type": "function"
    },
    {
      "inputs": [
        {
          "internalType": "uint256",
          "name": "tokenId",
          "type": "uint256"
        }
      ],
      "name": "pickRandomFirstWord",
      "outputs": [
        {
          "internalType": "string",
          "name": "",
          "type": "string"
        }
      ],
      "stateMutability": "view",
      "type": "function"
    },
    {
      "inputs": [
        {
          "internalType": "uint256",
          "name": "tokenId",
          "type": "uint256"
        }
      ],
      "name": "pickRandomSecondWord",
      "outputs": [
        {
          "internalType": "string",
          "name": "",
          "type": "string"
        }
      ],
      "stateMutability": "view",
      "type": "function"
    },
    {
      "inputs": [
        {
          "internalType": "uint256",
          "name": "tokenId",
          "type": "uint256"
        }
      ],
      "name": "pickRandomThirdWord",
      "outputs": [
        {
          "internalType": "string",
          "name": "",
          "type": "string"
        }
      ],
      "stateMutability": "view",
      "type": "function"
    },
    {
      "inputs": [
        {
          "internalType": "address",
          "name": "from",
          "type": "address"
        },
        {
          "internalType": "address",
          "name": "to",
          "type": "address"
        },
        {
          "internalType": "uint256",
          "name": "tokenId",
          "type": "uint256"
        }
      ],
      "name": "safeTransferFrom",
      "outputs": [],
      "stateMutability": "nonpayable",
      "type": "function"
    },
    {
      "inputs": [
        {
          "internalType": "address",
          "name": "from",
          "type": "address"
        },
        {
          "internalType": "address",
          "name": "to",
          "type": "address"
        },
        {
          "internalType": "uint256",
          "name": "tokenId",
          "type": "uint256"
        },
        {
          "internalType": "bytes",
          "name": "_data",
          "type": "bytes"
        }
      ],
      "name": "safeTransferFrom",
      "outputs": [],
      "stateMutability": "nonpayable",
      "type": "function"
    },
    {
      "inputs": [
        {
          "internalType": "address",
          "name": "operator",
          "type": "address"
        },
        {
          "internalType": "bool",
          "name": "approved",
          "type": "bool"
        }
      ],
      "name": "setApprovalForAll",
      "outputs": [],
      "stateMutability": "nonpayable",
      "type": "function"
    },
    {
      "inputs": [
        {
          "internalType": "bytes4",
          "name": "interfaceId",
          "type": "bytes4"
        }
      ],
      "name": "supportsInterface",
      "outputs": [
        {
          "internalType": "bool",
          "name": "",
          "type": "bool"
        }
      ],
      "stateMutability": "view",
      "type": "function"
    },
    {
      "inputs": [],
      "name": "symbol",
      "outputs": [
        {
          "internalType": "string",
          "name": "",
          "type": "string"
        }
      ],
      "stateMutability": "view",
      "type": "function"
    },
    {
      "inputs": [
        {
          "internalType": "uint256",
          "name": "tokenId",
          "type": "uint256"
        }
      ],
      "name": "tokenURI",
      "outputs": [
        {
          "internalType": "string",
          "name": "",
          "type": "string"
        }
      ],
      "stateMutability": "view",
      "type": "function"
    },
    {
      "inputs": [
        {
          "internalType": "address",
          "name": "from",
          "type": "address"
        },
        {
          "internalType": "address",
          "name": "to",
          "type": "address"
        },
        {
          "internalType": "uint256",
          "name": "tokenId",
          "type": "uint256"
        }
      ],
      "name": "transferFrom",
      "outputs": [],
      "stateMutability": "nonpayable",
      "type": "function"
    }
  ],
  "bytecode": "0x608060405260405180610160016040528061012f81526020016200465c61012f9139600890805190602001906200003892919062000945565b506040518061014001604052806040518060400160405280600381526020017f43616e000000000000000000000000000000000000000000000000000000000081525081526020016040518060400160405280600981526020017f4c697374656e696e67000000000000000000000000000000000000000000000081525081526020016040518060400160405280600381526020017f57686f000000000000000000000000000000000000000000000000000000000081525081526020016040518060400160405280600481526020017f457069630000000000000000000000000000000000000000000000000000000081525081526020016040518060400160405280600481526020017f44756d620000000000000000000000000000000000000000000000000000000081525081526020016040518060400160405280600481526020017f526f636b0000000000000000000000000000000000000000000000000000000081525081526020016040518060400160405280600681526020017f48616d6d6572000000000000000000000000000000000000000000000000000081525081526020016040518060400160405280600481526020017f57696c640000000000000000000000000000000000000000000000000000000081525081526020016040518060400160405280600381526020017f43616e000000000000000000000000000000000000000000000000000000000081525081526020016040518060400160405280600781526020017f416d617a696e6700000000000000000000000000000000000000000000000000815250815250600990600a620002a3929190620009d6565b506040518061014001604052806040518060400160405280600481526020017f57696c6c0000000000000000000000000000000000000000000000000000000081525081526020016040518060400160405280600481526020017f426561740000000000000000000000000000000000000000000000000000000081525081526020016040518060400160405280600481526020017f596f75720000000000000000000000000000000000000000000000000000000081525081526020016040518060400160405280600481526020017f4c617a790000000000000000000000000000000000000000000000000000000081525081526020016040518060400160405280600481526020017f427574740000000000000000000000000000000000000000000000000000000081525081526020016040518060400160405280600481526020017f42656c740000000000000000000000000000000000000000000000000000000081525081526020016040518060400160405280600381526020017f456172000000000000000000000000000000000000000000000000000000000081525081526020016040518060400160405280600581526020017f50686f6e6500000000000000000000000000000000000000000000000000000081525081526020016040518060400160405280600481526020017f506c61790000000000000000000000000000000000000000000000000000000081525081526020016040518060400160405280600481526020017f44756d6200000000000000000000000000000000000000000000000000000000815250815250600a90600a6200050e929190620009d6565b506040518061014001604052806040518060400160405280600381526020017f446f67000000000000000000000000000000000000000000000000000000000081525081526020016040518060400160405280600481526020017f4d616d610000000000000000000000000000000000000000000000000000000081525081526020016040518060400160405280600481526020017f4f64696e0000000000000000000000000000000000000000000000000000000081525081526020016040518060400160405280600481526020017f5a6575730000000000000000000000000000000000000000000000000000000081525081526020016040518060400160405280600881526020017f436f636b61706f6f00000000000000000000000000000000000000000000000081525081526020016040518060400160405280600481526020017f576966650000000000000000000000000000000000000000000000000000000081525081526020016040518060400160405280600581526020017f556e636c6500000000000000000000000000000000000000000000000000000081525081526020016040518060400160405280600a81526020017f4769726c667269656e640000000000000000000000000000000000000000000081525081526020016040518060400160405280600381526020017f446164000000000000000000000000000000000000000000000000000000000081525081526020016040518060400160405280600581526020017f4368696c64000000000000000000000000000000000000000000000000000000815250815250600b90600a62000779929190620009d6565b503480156200078757600080fd5b506040518060400160405280600981526020017f5371756172654e465400000000000000000000000000000000000000000000008152506040518060400160405280600681526020017f535155415245000000000000000000000000000000000000000000000000000081525081600090805190602001906200080c92919062000945565b5080600190805190602001906200082592919062000945565b505050620008736040518060400160405280601e81526020017f54686973206973206d79204e465420636f6e74726163742e20576f61682100008152506200087960201b620011371760201c565b62000bf7565b620009198160405160240162000890919062000b0b565b6040516020818303038152906040527f41304fac000000000000000000000000000000000000000000000000000000007bffffffffffffffffffffffffffffffffffffffffffffffffffffffff19166020820180517bffffffffffffffffffffffffffffffffffffffffffffffffffffffff83818316178352505050506200091c60201b60201c565b50565b60008151905060006a636f6e736f6c652e6c6f679050602083016000808483855afa5050505050565b828054620009539062000b81565b90600052602060002090601f016020900481019282620009775760008555620009c3565b82601f106200099257805160ff1916838001178555620009c3565b82800160010185558215620009c3579182015b82811115620009c2578251825591602001919060010190620009a5565b5b509050620009d2919062000a3d565b5090565b82805482825590600052602060002090810192821562000a2a579160200282015b8281111562000a2957825182908051906020019062000a1892919062000945565b5091602001919060010190620009f7565b5b50905062000a39919062000a5c565b5090565b5b8082111562000a5857600081600090555060010162000a3e565b5090565b5b8082111562000a80576000818162000a76919062000a84565b5060010162000a5d565b5090565b50805462000a929062000b81565b6000825580601f1062000aa6575062000ac7565b601f01602090049060005260206000209081019062000ac6919062000a3d565b5b50565b600062000ad78262000b2f565b62000ae3818562000b3a565b935062000af581856020860162000b4b565b62000b008162000be6565b840191505092915050565b6000602082019050818103600083015262000b27818462000aca565b905092915050565b600081519050919050565b600082825260208201905092915050565b60005b8381101562000b6b57808201518184015260208101905062000b4e565b8381111562000b7b576000848401525b50505050565b6000600282049050600182168062000b9a57607f821691505b6020821081141562000bb15762000bb062000bb7565b5b50919050565b7f4e487b7100000000000000000000000000000000000000000000000000000000600052602260045260246000fd5b6000601f19601f8301169050919050565b613a558062000c076000396000f3fe608060405234801561001057600080fd5b50600436106101215760003560e01c806370a08231116100ad578063c487e9b711610071578063c487e9b71461032c578063c575757a1461034a578063c87b56dd1461037a578063de9d132f146103aa578063e985e9c5146103b457610121565b806370a082311461027657806395d89b41146102a6578063a22cb465146102c4578063b187301f146102e0578063b88d4fde1461031057610121565b80630ca1c5c9116100f45780630ca1c5c9146101c057806323b872dd146101de5780632de38d68146101fa57806342842e0e1461022a5780636352211e1461024657610121565b806301ffc9a71461012657806306fdde0314610156578063081812fc14610174578063095ea7b3146101a4575b600080fd5b610140600480360381019061013b9190612563565b6103e4565b60405161014d9190612c6d565b60405180910390f35b61015e6104c6565b60405161016b9190612c88565b60405180910390f35b61018e600480360381019061018991906125b5565b610558565b60405161019b9190612bdd565b60405180910390f35b6101be60048036038101906101b99190612527565b6105dd565b005b6101c86106f5565b6040516101d59190612ee8565b60405180910390f35b6101f860048036038101906101f39190612421565b61070b565b005b610214600480360381019061020f91906125b5565b61076b565b6040516102219190612c88565b60405180910390f35b610244600480360381019061023f9190612421565b610889565b005b610260600480360381019061025b91906125b5565b6108a9565b60405161026d9190612bdd565b60405180910390f35b610290600480360381019061028b91906123bc565b61095b565b60405161029d9190612ee8565b60405180910390f35b6102ae610a13565b6040516102bb9190612c88565b60405180910390f35b6102de60048036038101906102d991906124eb565b610aa5565b005b6102fa60048036038101906102f591906125b5565b610abb565b6040516103079190612c88565b60405180910390f35b61032a60048036038101906103259190612470565b610bd9565b005b610334610c3b565b6040516103419190612ee8565b60405180910390f35b610364600480360381019061035f91906125b5565b610c4c565b6040516103719190612c88565b60405180910390f35b610394600480360381019061038f91906125b5565b610d6a565b6040516103a19190612c88565b60405180910390f35b6103b2610ebc565b005b6103ce60048036038101906103c991906123e5565b6110a3565b6040516103db9190612c6d565b60405180910390f35b60007f80ac58cd000000000000000000000000000000000000000000000000000000007bffffffffffffffffffffffffffffffffffffffffffffffffffffffff1916827bffffffffffffffffffffffffffffffffffffffffffffffffffffffff191614806104af57507f5b5e139f000000000000000000000000000000000000000000000000000000007bffffffffffffffffffffffffffffffffffffffffffffffffffffffff1916827bffffffffffffffffffffffffffffffffffffffffffffffffffffffff1916145b806104bf57506104be826111d0565b5b9050919050565b6060600080546104d59061317c565b80601f01602080910402602001604051908101604052809291908181526020018280546105019061317c565b801561054e5780601f106105235761010080835404028352916020019161054e565b820191906000526020600020905b81548152906001019060200180831161053157829003601f168201915b5050505050905090565b60006105638261123a565b6105a2576040517f08c379a000000000000000000000000000000000000000000000000000000000815260040161059990612e68565b60405180910390fd5b6004600083815260200190815260200160002060009054906101000a900473ffffffffffffffffffffffffffffffffffffffff169050919050565b60006105e8826108a9565b90508073ffffffffffffffffffffffffffffffffffffffff168373ffffffffffffffffffffffffffffffffffffffff161415610659576040517f08c379a000000000000000000000000000000000000000000000000000000000815260040161065090612ea8565b60405180910390fd5b8073ffffffffffffffffffffffffffffffffffffffff166106786112a6565b73ffffffffffffffffffffffffffffffffffffffff1614806106a757506106a6816106a16112a6565b6110a3565b5b6106e6576040517f08c379a00000000000000000000000000000000000000000000000000000000081526004016106dd90612da8565b60405180910390fd5b6106f083836112ae565b505050565b6000806107026007611367565b90508091505090565b61071c6107166112a6565b82611375565b61075b576040517f08c379a000000000000000000000000000000000000000000000000000000000815260040161075290612ec8565b60405180910390fd5b610766838383611453565b505050565b6060600061079f61077b846116ba565b60405160200161078b9190612b99565b604051602081830303815290604052611867565b9050600980549050816107b29190613228565b9050600981815481106107ee577f4e487b7100000000000000000000000000000000000000000000000000000000600052603260045260246000fd5b9060005260206000200180546108039061317c565b80601f016020809104026020016040519081016040528092919081815260200182805461082f9061317c565b801561087c5780601f106108515761010080835404028352916020019161087c565b820191906000526020600020905b81548152906001019060200180831161085f57829003601f168201915b5050505050915050919050565b6108a483838360405180602001604052806000815250610bd9565b505050565b6000806002600084815260200190815260200160002060009054906101000a900473ffffffffffffffffffffffffffffffffffffffff169050600073ffffffffffffffffffffffffffffffffffffffff168173ffffffffffffffffffffffffffffffffffffffff161415610952576040517f08c379a000000000000000000000000000000000000000000000000000000000815260040161094990612de8565b60405180910390fd5b80915050919050565b60008073ffffffffffffffffffffffffffffffffffffffff168273ffffffffffffffffffffffffffffffffffffffff1614156109cc576040517f08c379a00000000000000000000000000000000000000000000000000000000081526004016109c390612dc8565b60405180910390fd5b600360008373ffffffffffffffffffffffffffffffffffffffff1673ffffffffffffffffffffffffffffffffffffffff168152602001908152602001600020549050919050565b606060018054610a229061317c565b80601f0160208091040260200160405190810160405280929190818152602001828054610a4e9061317c565b8015610a9b5780601f10610a7057610100808354040283529160200191610a9b565b820191906000526020600020905b815481529060010190602001808311610a7e57829003601f168201915b5050505050905090565b610ab7610ab06112a6565b838361189a565b5050565b60606000610aef610acb846116ba565b604051602001610adb9190612b32565b604051602081830303815290604052611867565b9050600a8054905081610b029190613228565b9050600a8181548110610b3e577f4e487b7100000000000000000000000000000000000000000000000000000000600052603260045260246000fd5b906000526020600020018054610b539061317c565b80601f0160208091040260200160405190810160405280929190818152602001828054610b7f9061317c565b8015610bcc5780601f10610ba157610100808354040283529160200191610bcc565b820191906000526020600020905b815481529060010190602001808311610baf57829003601f168201915b5050505050915050919050565b610bea610be46112a6565b83611375565b610c29576040517f08c379a0000000000000000000000000000000000000000000000000000000008152600401610c2090612ec8565b60405180910390fd5b610c3584848484611a07565b50505050565b6000610c476007611367565b905090565b60606000610c80610c5c846116ba565b604051602001610c6c9190612b10565b604051602081830303815290604052611867565b9050600b8054905081610c939190613228565b9050600b8181548110610ccf577f4e487b7100000000000000000000000000000000000000000000000000000000600052603260045260246000fd5b906000526020600020018054610ce49061317c565b80601f0160208091040260200160405190810160405280929190818152602001828054610d109061317c565b8015610d5d5780601f10610d3257610100808354040283529160200191610d5d565b820191906000526020600020905b815481529060010190602001808311610d4057829003601f168201915b5050505050915050919050565b6060610d758261123a565b610db4576040517f08c379a0000000000000000000000000000000000000000000000000000000008152600401610dab90612e48565b60405180910390fd5b6000600660008481526020019081526020016000208054610dd49061317c565b80601f0160208091040260200160405190810160405280929190818152602001828054610e009061317c565b8015610e4d5780601f10610e2257610100808354040283529160200191610e4d565b820191906000526020600020905b815481529060010190602001808311610e3057829003601f168201915b505050505090506000610e5e611a63565b9050600081511415610e74578192505050610eb7565b600082511115610ea9578082604051602001610e91929190612a8c565b60405160208183030381529060405292505050610eb7565b610eb284611a7a565b925050505b919050565b6000610ec86007611367565b90506000610ed58261076b565b90506000610ee283610abb565b90506000610eef84610c4c565b90506000838383604051602001610f0893929190612ab0565b60405160208183030381529060405290506000600882604051602001610f2f929190612ae1565b60405160208183030381529060405290506000610f7483610f4f84611b21565b604051602001610f60929190612b54565b604051602081830303815290604052611b21565b9050600081604051602001610f899190612bbb565b6040516020818303038152906040529050610fd86040518060400160405280601581526020017f0a2d2d2d2d2d2d2d2d2d2d2d2d2d2d2d2d2d2d2d2d0000000000000000000000815250611137565b610fe181611137565b61101f6040518060400160405280601581526020017f2d2d2d2d2d2d2d2d2d2d2d2d2d2d2d2d2d2d2d2d0a0000000000000000000000815250611137565b6110293389611cdf565b6110338882611cfd565b61103d6007611d71565b6110606040518060600160405280602581526020016139bb602591398933611d87565b7febb98688741ffa4c7589bf325de30cf7becb63de567842e1ccdb6cb949fdc82c3389604051611091929190612c44565b60405180910390a15050505050505050565b6000600560008473ffffffffffffffffffffffffffffffffffffffff1673ffffffffffffffffffffffffffffffffffffffff16815260200190815260200160002060008373ffffffffffffffffffffffffffffffffffffffff1673ffffffffffffffffffffffffffffffffffffffff16815260200190815260200160002060009054906101000a900460ff16905092915050565b6111cd8160405160240161114b9190612c88565b6040516020818303038152906040527f41304fac000000000000000000000000000000000000000000000000000000007bffffffffffffffffffffffffffffffffffffffffffffffffffffffff19166020820180517bffffffffffffffffffffffffffffffffffffffffffffffffffffffff8381831617835250505050611e26565b50565b60007f01ffc9a7000000000000000000000000000000000000000000000000000000007bffffffffffffffffffffffffffffffffffffffffffffffffffffffff1916827bffffffffffffffffffffffffffffffffffffffffffffffffffffffff1916149050919050565b60008073ffffffffffffffffffffffffffffffffffffffff166002600084815260200190815260200160002060009054906101000a900473ffffffffffffffffffffffffffffffffffffffff1673ffffffffffffffffffffffffffffffffffffffff1614159050919050565b600033905090565b816004600083815260200190815260200160002060006101000a81548173ffffffffffffffffffffffffffffffffffffffff021916908373ffffffffffffffffffffffffffffffffffffffff160217905550808273ffffffffffffffffffffffffffffffffffffffff16611321836108a9565b73ffffffffffffffffffffffffffffffffffffffff167f8c5be1e5ebec7d5bd14f71427d1e84f3dd0314c0f7b2291e5b200ac8c7c3b92560405160405180910390a45050565b600081600001549050919050565b60006113808261123a565b6113bf576040517f08c379a00000000000000000000000000000000000000000000000000000000081526004016113b690612d88565b60405180910390fd5b60006113ca836108a9565b90508073ffffffffffffffffffffffffffffffffffffffff168473ffffffffffffffffffffffffffffffffffffffff16148061140c575061140b81856110a3565b5b8061144a57508373ffffffffffffffffffffffffffffffffffffffff1661143284610558565b73ffffffffffffffffffffffffffffffffffffffff16145b91505092915050565b8273ffffffffffffffffffffffffffffffffffffffff16611473826108a9565b73ffffffffffffffffffffffffffffffffffffffff16146114c9576040517f08c379a00000000000000000000000000000000000000000000000000000000081526004016114c090612d08565b60405180910390fd5b600073ffffffffffffffffffffffffffffffffffffffff168273ffffffffffffffffffffffffffffffffffffffff161415611539576040517f08c379a000000000000000000000000000000000000000000000000000000000815260040161153090612d48565b60405180910390fd5b611544838383611e4f565b61154f6000826112ae565b6001600360008573ffffffffffffffffffffffffffffffffffffffff1673ffffffffffffffffffffffffffffffffffffffff168152602001908152602001600020600082825461159f9190613092565b925050819055506001600360008473ffffffffffffffffffffffffffffffffffffffff1673ffffffffffffffffffffffffffffffffffffffff16815260200190815260200160002060008282546115f69190612fb1565b92505081905550816002600083815260200190815260200160002060006101000a81548173ffffffffffffffffffffffffffffffffffffffff021916908373ffffffffffffffffffffffffffffffffffffffff160217905550808273ffffffffffffffffffffffffffffffffffffffff168473ffffffffffffffffffffffffffffffffffffffff167fddf252ad1be2c89b69c2b068fc378daa952ba7f163c4a11628f55a4df523b3ef60405160405180910390a46116b5838383611e54565b505050565b60606000821415611702576040518060400160405280600181526020017f30000000000000000000000000000000000000000000000000000000000000008152509050611862565b600082905060005b6000821461173457808061171d906131df565b915050600a8261172d9190613007565b915061170a565b60008167ffffffffffffffff811115611776577f4e487b7100000000000000000000000000000000000000000000000000000000600052604160045260246000fd5b6040519080825280601f01601f1916602001820160405280156117a85781602001600182028036833780820191505090505b5090505b6000851461185b576001826117c19190613092565b9150600a856117d09190613228565b60306117dc9190612fb1565b60f81b818381518110611818577f4e487b7100000000000000000000000000000000000000000000000000000000600052603260045260246000fd5b60200101907effffffffffffffffffffffffffffffffffffffffffffffffffffffffffffff1916908160001a905350600a856118549190613007565b94506117ac565b8093505050505b919050565b60008160405160200161187a9190612a75565b6040516020818303038152906040528051906020012060001c9050919050565b8173ffffffffffffffffffffffffffffffffffffffff168373ffffffffffffffffffffffffffffffffffffffff161415611909576040517f08c379a000000000000000000000000000000000000000000000000000000000815260040161190090612d68565b60405180910390fd5b80600560008573ffffffffffffffffffffffffffffffffffffffff1673ffffffffffffffffffffffffffffffffffffffff16815260200190815260200160002060008473ffffffffffffffffffffffffffffffffffffffff1673ffffffffffffffffffffffffffffffffffffffff16815260200190815260200160002060006101000a81548160ff0219169083151502179055508173ffffffffffffffffffffffffffffffffffffffff168373ffffffffffffffffffffffffffffffffffffffff167f17307eab39ab6107e8899845ad3d59bd9653f200f220920489ca2b5937696c31836040516119fa9190612c6d565b60405180910390a3505050565b611a12848484611453565b611a1e84848484611e59565b611a5d576040517f08c379a0000000000000000000000000000000000000000000000000000000008152600401611a5490612ce8565b60405180910390fd5b50505050565b606060405180602001604052806000815250905090565b6060611a858261123a565b611ac4576040517f08c379a0000000000000000000000000000000000000000000000000000000008152600401611abb90612e88565b60405180910390fd5b6000611ace611a63565b90506000815111611aee5760405180602001604052806000815250611b19565b80611af8846116ba565b604051602001611b09929190612a8c565b6040516020818303038152906040525b915050919050565b60606000825190506000811415611b4a5760405180602001604052806000815250915050611cda565b60006003600283611b5b9190612fb1565b611b659190613007565b6004611b719190613038565b90506000602082611b829190612fb1565b67ffffffffffffffff811115611bc1577f4e487b7100000000000000000000000000000000000000000000000000000000600052604160045260246000fd5b6040519080825280601f01601f191660200182016040528015611bf35781602001600182028036833780820191505090505b50905060006040518060600160405280604081526020016139e0604091399050600181016020830160005b86811015611c975760038101905062ffffff818a015116603f8160121c168401518060081b905060ff603f83600c1c1686015116810190508060081b905060ff603f8360061c1686015116810190508060081b905060ff603f831686015116810190508060e01b90508084526004840193505050611c1e565b506003860660018114611cb15760028114611cc157611ccc565b613d3d60f01b6002830352611ccc565b603d60f81b60018303525b508484525050819450505050505b919050565b611cf9828260405180602001604052806000815250611ff0565b5050565b611d068261123a565b611d45576040517f08c379a0000000000000000000000000000000000000000000000000000000008152600401611d3c90612e08565b60405180910390fd5b80600660008481526020019081526020016000209080519060200190611d6c929190612248565b505050565b6001816000016000828254019250508190555050565b611e21838383604051602401611d9f93929190612caa565b6040516020818303038152906040527fe3849f79000000000000000000000000000000000000000000000000000000007bffffffffffffffffffffffffffffffffffffffffffffffffffffffff19166020820180517bffffffffffffffffffffffffffffffffffffffffffffffffffffffff8381831617835250505050611e26565b505050565b60008151905060006a636f6e736f6c652e6c6f679050602083016000808483855afa5050505050565b505050565b505050565b6000611e7a8473ffffffffffffffffffffffffffffffffffffffff1661204b565b15611fe3578373ffffffffffffffffffffffffffffffffffffffff1663150b7a02611ea36112a6565b8786866040518563ffffffff1660e01b8152600401611ec59493929190612bf8565b602060405180830381600087803b158015611edf57600080fd5b505af1925050508015611f1057506040513d601f19601f82011682018060405250810190611f0d919061258c565b60015b611f93573d8060008114611f40576040519150601f19603f3d011682016040523d82523d6000602084013e611f45565b606091505b50600081511415611f8b576040517f08c379a0000000000000000000000000000000000000000000000000000000008152600401611f8290612ce8565b60405180910390fd5b805181602001fd5b63150b7a0260e01b7bffffffffffffffffffffffffffffffffffffffffffffffffffffffff1916817bffffffffffffffffffffffffffffffffffffffffffffffffffffffff191614915050611fe8565b600190505b949350505050565b611ffa838361206e565b6120076000848484611e59565b612046576040517f08c379a000000000000000000000000000000000000000000000000000000000815260040161203d90612ce8565b60405180910390fd5b505050565b6000808273ffffffffffffffffffffffffffffffffffffffff163b119050919050565b600073ffffffffffffffffffffffffffffffffffffffff168273ffffffffffffffffffffffffffffffffffffffff1614156120de576040517f08c379a00000000000000000000000000000000000000000000000000000000081526004016120d590612e28565b60405180910390fd5b6120e78161123a565b15612127576040517f08c379a000000000000000000000000000000000000000000000000000000000815260040161211e90612d28565b60405180910390fd5b61213360008383611e4f565b6001600360008473ffffffffffffffffffffffffffffffffffffffff1673ffffffffffffffffffffffffffffffffffffffff16815260200190815260200160002060008282546121839190612fb1565b92505081905550816002600083815260200190815260200160002060006101000a81548173ffffffffffffffffffffffffffffffffffffffff021916908373ffffffffffffffffffffffffffffffffffffffff160217905550808273ffffffffffffffffffffffffffffffffffffffff16600073ffffffffffffffffffffffffffffffffffffffff167fddf252ad1be2c89b69c2b068fc378daa952ba7f163c4a11628f55a4df523b3ef60405160405180910390a461224460008383611e54565b5050565b8280546122549061317c565b90600052602060002090601f01602090048101928261227657600085556122bd565b82601f1061228f57805160ff19168380011785556122bd565b828001600101855582156122bd579182015b828111156122bc5782518255916020019190600101906122a1565b5b5090506122ca91906122ce565b5090565b5b808211156122e75760008160009055506001016122cf565b5090565b60006122fe6122f984612f28565b612f03565b90508281526020810184848401111561231657600080fd5b61232184828561313a565b509392505050565b6000813590506123388161395e565b92915050565b60008135905061234d81613975565b92915050565b6000813590506123628161398c565b92915050565b6000815190506123778161398c565b92915050565b600082601f83011261238e57600080fd5b813561239e8482602086016122eb565b91505092915050565b6000813590506123b6816139a3565b92915050565b6000602082840312156123ce57600080fd5b60006123dc84828501612329565b91505092915050565b600080604083850312156123f857600080fd5b600061240685828601612329565b925050602061241785828601612329565b9150509250929050565b60008060006060848603121561243657600080fd5b600061244486828701612329565b935050602061245586828701612329565b9250506040612466868287016123a7565b9150509250925092565b6000806000806080858703121561248657600080fd5b600061249487828801612329565b94505060206124a587828801612329565b93505060406124b6878288016123a7565b925050606085013567ffffffffffffffff8111156124d357600080fd5b6124df8782880161237d565b91505092959194509250565b600080604083850312156124fe57600080fd5b600061250c85828601612329565b925050602061251d8582860161233e565b9150509250929050565b6000806040838503121561253a57600080fd5b600061254885828601612329565b9250506020612559858286016123a7565b9150509250929050565b60006020828403121561257557600080fd5b600061258384828501612353565b91505092915050565b60006020828403121561259e57600080fd5b60006125ac84828501612368565b91505092915050565b6000602082840312156125c757600080fd5b60006125d5848285016123a7565b91505092915050565b6125e7816130c6565b82525050565b6125f6816130d8565b82525050565b600061260782612f6e565b6126118185612f84565b9350612621818560208601613149565b61262a81613315565b840191505092915050565b600061264082612f79565b61264a8185612f95565b935061265a818560208601613149565b61266381613315565b840191505092915050565b600061267982612f79565b6126838185612fa6565b9350612693818560208601613149565b80840191505092915050565b600081546126ac8161317c565b6126b68186612fa6565b945060018216600081146126d157600181146126e257612715565b60ff19831686528186019350612715565b6126eb85612f59565b60005b8381101561270d578154818901526001820191506020810190506126ee565b838801955050505b50505092915050565b600061272b603283612f95565b915061273682613326565b604082019050919050565b600061274e602583612f95565b915061275982613375565b604082019050919050565b6000612771601c83612f95565b915061277c826133c4565b602082019050919050565b6000612794600a83612fa6565b915061279f826133ed565b600a82019050919050565b60006127b7602483612f95565b91506127c282613416565b604082019050919050565b60006127da601983612f95565b91506127e582613465565b602082019050919050565b60006127fd606383612fa6565b91506128088261348e565b606382019050919050565b6000612820600b83612fa6565b915061282b82613529565b600b82019050919050565b6000612843602c83612f95565b915061284e82613552565b604082019050919050565b6000612866600d83612fa6565b9150612871826135a1565b600d82019050919050565b6000612889603883612f95565b9150612894826135ca565b604082019050919050565b60006128ac602a83612f95565b91506128b782613619565b604082019050919050565b60006128cf602983612f95565b91506128da82613668565b604082019050919050565b60006128f2602e83612f95565b91506128fd826136b7565b604082019050919050565b6000612915600283612fa6565b915061292082613706565b600282019050919050565b6000612938602083612f95565b91506129438261372f565b602082019050919050565b600061295b603183612f95565b915061296682613758565b604082019050919050565b600061297e602c83612f95565b9150612989826137a7565b604082019050919050565b60006129a1602f83612f95565b91506129ac826137f6565b604082019050919050565b60006129c4600a83612fa6565b91506129cf82613845565b600a82019050919050565b60006129e7602183612f95565b91506129f28261386e565b604082019050919050565b6000612a0a600a83612fa6565b9150612a15826138bd565b600a82019050919050565b6000612a2d601d83612fa6565b9150612a38826138e6565b601d82019050919050565b6000612a50603183612f95565b9150612a5b8261390f565b604082019050919050565b612a6f81613130565b82525050565b6000612a81828461266e565b915081905092915050565b6000612a98828561266e565b9150612aa4828461266e565b91508190509392505050565b6000612abc828661266e565b9150612ac8828561266e565b9150612ad4828461266e565b9150819050949350505050565b6000612aed828561269f565b9150612af9828461266e565b9150612b0482612859565b91508190509392505050565b6000612b1b82612787565b9150612b27828461266e565b915081905092915050565b6000612b3d82612813565b9150612b49828461266e565b915081905092915050565b6000612b5f826129b7565b9150612b6b828561266e565b9150612b76826127f0565b9150612b82828461266e565b9150612b8d82612908565b91508190509392505050565b6000612ba4826129fd565b9150612bb0828461266e565b915081905092915050565b6000612bc682612a20565b9150612bd2828461266e565b915081905092915050565b6000602082019050612bf260008301846125de565b92915050565b6000608082019050612c0d60008301876125de565b612c1a60208301866125de565b612c276040830185612a66565b8181036060830152612c3981846125fc565b905095945050505050565b6000604082019050612c5960008301856125de565b612c666020830184612a66565b9392505050565b6000602082019050612c8260008301846125ed565b92915050565b60006020820190508181036000830152612ca28184612635565b905092915050565b60006060820190508181036000830152612cc48186612635565b9050612cd36020830185612a66565b612ce060408301846125de565b949350505050565b60006020820190508181036000830152612d018161271e565b9050919050565b60006020820190508181036000830152612d2181612741565b9050919050565b60006020820190508181036000830152612d4181612764565b9050919050565b60006020820190508181036000830152612d61816127aa565b9050919050565b60006020820190508181036000830152612d81816127cd565b9050919050565b60006020820190508181036000830152612da181612836565b9050919050565b60006020820190508181036000830152612dc18161287c565b9050919050565b60006020820190508181036000830152612de18161289f565b9050919050565b60006020820190508181036000830152612e01816128c2565b9050919050565b60006020820190508181036000830152612e21816128e5565b9050919050565b60006020820190508181036000830152612e418161292b565b9050919050565b60006020820190508181036000830152612e618161294e565b9050919050565b60006020820190508181036000830152612e8181612971565b9050919050565b60006020820190508181036000830152612ea181612994565b9050919050565b60006020820190508181036000830152612ec1816129da565b9050919050565b60006020820190508181036000830152612ee181612a43565b9050919050565b6000602082019050612efd6000830184612a66565b92915050565b6000612f0d612f1e565b9050612f1982826131ae565b919050565b6000604051905090565b600067ffffffffffffffff821115612f4357612f426132e6565b5b612f4c82613315565b9050602081019050919050565b60008190508160005260206000209050919050565b600081519050919050565b600081519050919050565b600082825260208201905092915050565b600082825260208201905092915050565b600081905092915050565b6000612fbc82613130565b9150612fc783613130565b9250827fffffffffffffffffffffffffffffffffffffffffffffffffffffffffffffffff03821115612ffc57612ffb613259565b5b828201905092915050565b600061301282613130565b915061301d83613130565b92508261302d5761302c613288565b5b828204905092915050565b600061304382613130565b915061304e83613130565b9250817fffffffffffffffffffffffffffffffffffffffffffffffffffffffffffffffff048311821515161561308757613086613259565b5b828202905092915050565b600061309d82613130565b91506130a883613130565b9250828210156130bb576130ba613259565b5b828203905092915050565b60006130d182613110565b9050919050565b60008115159050919050565b60007fffffffff0000000000000000000000000000000000000000000000000000000082169050919050565b600073ffffffffffffffffffffffffffffffffffffffff82169050919050565b6000819050919050565b82818337600083830152505050565b60005b8381101561316757808201518184015260208101905061314c565b83811115613176576000848401525b50505050565b6000600282049050600182168061319457607f821691505b602082108114156131a8576131a76132b7565b5b50919050565b6131b782613315565b810181811067ffffffffffffffff821117156131d6576131d56132e6565b5b80604052505050565b60006131ea82613130565b91507fffffffffffffffffffffffffffffffffffffffffffffffffffffffffffffffff82141561321d5761321c613259565b5b600182019050919050565b600061323382613130565b915061323e83613130565b92508261324e5761324d613288565b5b828206905092915050565b7f4e487b7100000000000000000000000000000000000000000000000000000000600052601160045260246000fd5b7f4e487b7100000000000000000000000000000000000000000000000000000000600052601260045260246000fd5b7f4e487b7100000000000000000000000000000000000000000000000000000000600052602260045260246000fd5b7f4e487b7100000000000000000000000000000000000000000000000000000000600052604160045260246000fd5b6000601f19601f8301169050919050565b7f4552433732313a207472616e7366657220746f206e6f6e20455243373231526560008201527f63656976657220696d706c656d656e7465720000000000000000000000000000602082015250565b7f4552433732313a207472616e736665722066726f6d20696e636f72726563742060008201527f6f776e6572000000000000000000000000000000000000000000000000000000602082015250565b7f4552433732313a20746f6b656e20616c7265616479206d696e74656400000000600082015250565b7f54484952445f574f524400000000000000000000000000000000000000000000600082015250565b7f4552433732313a207472616e7366657220746f20746865207a65726f2061646460008201527f7265737300000000000000000000000000000000000000000000000000000000602082015250565b7f4552433732313a20617070726f766520746f2063616c6c657200000000000000600082015250565b7f222c20226465736372697074696f6e223a20224120686967686c79206163636c60008201527f61696d656420636f6c6c656374696f6e206f6620737175617265732e222c202260208201527f696d616765223a2022646174613a696d6167652f7376672b786d6c3b6261736560408201527f36342c0000000000000000000000000000000000000000000000000000000000606082015250565b7f5345434f4e445f574f5244000000000000000000000000000000000000000000600082015250565b7f4552433732313a206f70657261746f7220717565727920666f72206e6f6e657860008201527f697374656e7420746f6b656e0000000000000000000000000000000000000000602082015250565b7f3c2f746578743e3c2f7376673e00000000000000000000000000000000000000600082015250565b7f4552433732313a20617070726f76652063616c6c6572206973206e6f74206f7760008201527f6e6572206e6f7220617070726f76656420666f7220616c6c0000000000000000602082015250565b7f4552433732313a2062616c616e636520717565727920666f7220746865207a6560008201527f726f206164647265737300000000000000000000000000000000000000000000602082015250565b7f4552433732313a206f776e657220717565727920666f72206e6f6e657869737460008201527f656e7420746f6b656e0000000000000000000000000000000000000000000000602082015250565b7f45524337323155524953746f726167653a2055524920736574206f66206e6f6e60008201527f6578697374656e7420746f6b656e000000000000000000000000000000000000602082015250565b7f227d000000000000000000000000000000000000000000000000000000000000600082015250565b7f4552433732313a206d696e7420746f20746865207a65726f2061646472657373600082015250565b7f45524337323155524953746f726167653a2055524920717565727920666f722060008201527f6e6f6e6578697374656e7420746f6b656e000000000000000000000000000000602082015250565b7f4552433732313a20617070726f76656420717565727920666f72206e6f6e657860008201527f697374656e7420746f6b656e0000000000000000000000000000000000000000602082015250565b7f4552433732314d657461646174613a2055524920717565727920666f72206e6f60008201527f6e6578697374656e7420746f6b656e0000000000000000000000000000000000602082015250565b7f7b226e616d65223a202200000000000000000000000000000000000000000000600082015250565b7f4552433732313a20617070726f76616c20746f2063757272656e74206f776e6560008201527f7200000000000000000000000000000000000000000000000000000000000000602082015250565b7f46495253545f574f524400000000000000000000000000000000000000000000600082015250565b7f646174613a6170706c69636174696f6e2f6a736f6e3b6261736536342c000000600082015250565b7f4552433732313a207472616e736665722063616c6c6572206973206e6f74206f60008201527f776e6572206e6f7220617070726f766564000000000000000000000000000000602082015250565b613967816130c6565b811461397257600080fd5b50565b61397e816130d8565b811461398957600080fd5b50565b613995816130e4565b81146139a057600080fd5b50565b6139ac81613130565b81146139b757600080fd5b5056fe416e204e465420772f20494420257320686173206265656e206d696e74656420746f2025734142434445464748494a4b4c4d4e4f505152535455565758595a6162636465666768696a6b6c6d6e6f707172737475767778797a303132333435363738392b2fa26469706673582212208b813cf7e4fdf7f5968ad94f456010c701092d081514c6883f99c647355a33cb64736f6c634300080100333c73766720786d6c6e733d27687474703a2f2f7777772e77332e6f72672f323030302f73766727207072657365727665417370656374526174696f3d27784d696e594d696e206d656574272076696577426f783d273020302033353020333530273e3c7374796c653e2e62617365207b2066696c6c3a2077686974653b20666f6e742d66616d696c793a2073657269663b20666f6e742d73697a653a20323470783b207d3c2f7374796c653e3c726563742077696474683d273130302527206865696768743d2731303025272066696c6c3d27626c61636b27202f3e3c7465787420783d273530252720793d273530252720636c6173733d27626173652720646f6d696e616e742d626173656c696e653d276d6964646c652720746578742d616e63686f723d276d6964646c65273e",
  "linkReferences": {},
  "deployedLinkReferences": {}
}